{
  "contractName": "EventCreator",
  "abi": [
    {
      "constant": true,
      "inputs": [
        {
          "name": "",
          "type": "uint256"
        }
      ],
      "name": "allEvents",
      "outputs": [
        {
          "name": "",
          "type": "address"
        }
      ],
      "payable": false,
      "stateMutability": "view",
      "type": "function"
    },
    {
      "constant": true,
      "inputs": [],
      "name": "getContractCount",
      "outputs": [
        {
          "name": "contractCount",
          "type": "uint256"
        }
      ],
      "payable": false,
      "stateMutability": "view",
      "type": "function"
    },
    {
      "constant": true,
      "inputs": [],
      "name": "getAllEvents",
      "outputs": [
        {
          "name": "allEvents",
          "type": "address[]"
        }
      ],
      "payable": false,
      "stateMutability": "view",
      "type": "function"
    },
    {
      "anonymous": false,
      "inputs": [
        {
          "indexed": false,
          "name": "_from",
          "type": "address"
        },
        {
          "indexed": false,
          "name": "_eventName",
          "type": "string"
        }
      ],
      "name": "createContract",
      "type": "event"
    }
  ],
  "bytecode": "0x6060604052341561000f57600080fd5b6101eb8061001e6000396000f300606060405260043610610057576000357c0100000000000000000000000000000000000000000000000000000000900463ffffffff1680633bec5cff1461005c5780639399869d146100bf578063c27a500d146100e8575b600080fd5b341561006757600080fd5b61007d6004808035906020019091905050610152565b604051808273ffffffffffffffffffffffffffffffffffffffff1673ffffffffffffffffffffffffffffffffffffffff16815260200191505060405180910390f35b34156100ca57600080fd5b6100d2610191565b6040518082815260200191505060405180910390f35b34156100f357600080fd5b6100fb61019d565b6040518080602001828103825283818151815260200191508051906020019060200280838360005b8381101561013e578082015181840152602081019050610123565b505050509050019250505060405180910390f35b60008181548110151561016157fe5b90600052602060002090016000915054906101000a900473ffffffffffffffffffffffffffffffffffffffff1681565b60008080549050905090565b6101a56101ab565b80905090565b6020604051908101604052806000815250905600a165627a7a723058201bf19a6903cd0bf883a1f63802bdaed351699abf2f205f7d8cd5dfb89aad41d90029",
  "source": "pragma solidity ^0.4.8;\n\n/*Need to write fallback function*/\n\n\ncontract MyToken {\n    /* This creates an array with all balances */\n    mapping (address => uint256) public balanceOf;\n\n    /* Initializes contract with initial supply tokens to the creator of the contract */\n    function BloxToken(\n        uint256 initialSupply\n        ) {\n        balanceOf[this] = initialSupply;              // Give the creator all initial tokens\n    }\n\n    /* Send coins */\n    function transfer(address _to, uint256 _value) {\n        if (balanceOf[this] < _value) throw;           // Check if the sender has enough\n        if (balanceOf[_to] + _value < balanceOf[_to]) throw; // Check for overflows\n        balanceOf[this] -= _value;                     // Subtract from the sender\n        balanceOf[_to] += _value;                            // Add the same to the recipient\n    }\n}\n\ncontract EventCreator {\n\n  /*index of created events*/\n  address[] public allEvents;\n\n  event createContract(address _from, string _eventName);\n\n  function getAllEvents()\n  public\n  constant\n  returns(address[] allEvents)\n {\n   return allEvents;\n }\n\n  function getContractCount()\n  public\n  constant\n  returns(uint contractCount)\n {\n   return allEvents.length;\n }\n}\n\ncontract UserEvent is MyToken {\n\n  /*Need to create Array of tickets based on quota*/\n\n  UserEvent creator;\n  mapping (address => uint) public registrantsPaid;\n  address public organizer;\n  uint public numRegistrants = 0;\n  uint public quota;\n  uint public ticketPrice;\n  string public eventName;\n  string public eventDescription;\n  string public eventLocation;\n  string public imageURL;\n\n\n  event newEvent(address _from, string _eventName);\n\n  event Deposit(address _from, uint _amount);  // so you can log these events\n  event Refund(address _to, uint _amount);\n\n  function createEvent(\n    uint _quota,\n    uint _ticketPrice,\n    string _eventName,\n    string _eventDescription,\n    string _eventLocation,\n    string _imageURL)\n    {\n    organizer = msg.sender;\n    quota = _quota;\n    ticketPrice = _ticketPrice;\n    eventName = _eventName;\n    eventDescription = _eventDescription;\n    eventLocation = _eventLocation;\n    imageURL = _imageURL;\n    /*EventCreator.allEvents.push(this);*/\n    newEvent(this, eventName);\n    MyToken.BloxToken(quota);\n  }\n\n  /*function something(\n    address one,\n    address two,\n    address three)\n  constant\n  doSomething(one, two, msg.sender)\n  payable returns (bool) {\n\n  }*/\n\n  function () payable {\n    if (numRegistrants >= quota)\n      throw;\n\n    if (msg.value != ticketPrice)\n      throw;\n\n    registrantsPaid[msg.sender] = msg.value;\n    MyToken.transfer(msg.sender, 1);\n    numRegistrants++;\n    Deposit(msg.sender, msg.value);\n    // send a percentage to EventCreator\n  }\n\n  /*UserEvent(0x01023012123123).buyTicket();\n  UserEvent(0x01023012123123).sendTransaction('buyTicket');*/\n\n  /*Need to send user ticket*/\n  function buyTicket(address _purchaser, uint _amountPaid) payable public returns (bool success) {\n    if (numRegistrants >= quota) { return false; }\n    if (_amountPaid < ticketPrice) { return false; }\n    registrantsPaid[_purchaser] = _amountPaid;\n    numRegistrants++;\n    Deposit(_purchaser, _amountPaid);\n    return true;\n  }\n\n  // maybe only increaseQuota\n  function changeQuota(uint newquota) public {\n    if (msg.sender != organizer) { return; }\n    quota = newquota; // what happens when this is lower?\n  }\n\n  /*bool reentrancy;\n\n  modifier noRentrancy {\n    if (reentrancy == true)\n      throw;\n\n    reentrancy = true;\n\n  }*/\n\n  function refundTicket(address recipient, uint amount) public {\n    if (msg.sender != organizer) { return; }\n    if (registrantsPaid[recipient] == amount) {\n      address myAddress = this;\n      if (myAddress.balance >= amount) {\n        /*if (!recipient.transfer(amount))\n          throw; // determine the difference with send, guards against reentrancy?*/\n\n        registrantsPaid[recipient] = 0;\n        numRegistrants--;\n        Refund(recipient, amount);\n      }\n    }\n  }\n  function destroy() { // so funds not locked in contract forever\n    if (msg.sender == organizer) {\n      selfdestruct(organizer); // send funds to organizer\n    }\n  }\n}\n",
  "sourcePath": "/Users/sujianwei20/Desktop/bloxoffice/contracts/Tickets.sol",
  "compiler": {
    "name": "solc",
    "version": "0.4.18+commit.9cf6e910.Emscripten.clang"
  },
  "schemaVersion": "1.0.1",
  "updatedAt": "2018-01-01T05:11:56.365Z"
}