{
  "contractName": "UserEvent",
  "abi": [
    {
      "constant": true,
      "inputs": [],
      "name": "ticketPrice",
      "outputs": [
        {
          "name": "",
          "type": "uint256"
        }
      ],
      "payable": false,
      "stateMutability": "view",
      "type": "function"
    },
    {
      "constant": true,
      "inputs": [
        {
          "name": "",
          "type": "address"
        }
      ],
      "name": "registrantsPaid",
      "outputs": [
        {
          "name": "",
          "type": "uint256"
        }
      ],
      "payable": false,
      "stateMutability": "view",
      "type": "function"
    },
    {
      "constant": true,
      "inputs": [],
      "name": "eventLocation",
      "outputs": [
        {
          "name": "",
          "type": "string"
        }
      ],
      "payable": false,
      "stateMutability": "view",
      "type": "function"
    },
    {
      "constant": false,
      "inputs": [
        {
          "name": "_quota",
          "type": "uint256"
        },
        {
          "name": "_ticketPrice",
          "type": "uint256"
        },
        {
          "name": "_eventName",
          "type": "string"
        },
        {
          "name": "_eventDescription",
          "type": "string"
        },
        {
          "name": "_eventLocation",
          "type": "string"
        },
        {
          "name": "_imageURL",
          "type": "string"
        }
      ],
      "name": "createEvent",
      "outputs": [],
      "payable": false,
      "stateMutability": "nonpayable",
      "type": "function"
    },
    {
      "constant": false,
      "inputs": [
        {
          "name": "initialSupply",
          "type": "uint256"
        }
      ],
      "name": "BloxToken",
      "outputs": [],
      "payable": false,
      "stateMutability": "nonpayable",
      "type": "function"
    },
    {
      "constant": true,
      "inputs": [],
      "name": "organizer",
      "outputs": [
        {
          "name": "",
          "type": "address"
        }
      ],
      "payable": false,
      "stateMutability": "view",
      "type": "function"
    },
    {
      "constant": false,
      "inputs": [
        {
          "name": "_purchaser",
          "type": "address"
        },
        {
          "name": "_amountPaid",
          "type": "uint256"
        }
      ],
      "name": "buyTicket",
      "outputs": [
        {
          "name": "success",
          "type": "bool"
        }
      ],
      "payable": true,
      "stateMutability": "payable",
      "type": "function"
    },
    {
      "constant": false,
      "inputs": [
        {
          "name": "recipient",
          "type": "address"
        },
        {
          "name": "amount",
          "type": "uint256"
        }
      ],
      "name": "refundTicket",
      "outputs": [],
      "payable": false,
      "stateMutability": "nonpayable",
      "type": "function"
    },
    {
      "constant": true,
      "inputs": [
        {
          "name": "",
          "type": "address"
        }
      ],
      "name": "balanceOf",
      "outputs": [
        {
          "name": "",
          "type": "uint256"
        }
      ],
      "payable": false,
      "stateMutability": "view",
      "type": "function"
    },
    {
      "constant": true,
      "inputs": [],
      "name": "eventName",
      "outputs": [
        {
          "name": "",
          "type": "string"
        }
      ],
      "payable": false,
      "stateMutability": "view",
      "type": "function"
    },
    {
      "constant": false,
      "inputs": [],
      "name": "destroy",
      "outputs": [],
      "payable": false,
      "stateMutability": "nonpayable",
      "type": "function"
    },
    {
      "constant": true,
      "inputs": [],
      "name": "eventDescription",
      "outputs": [
        {
          "name": "",
          "type": "string"
        }
      ],
      "payable": false,
      "stateMutability": "view",
      "type": "function"
    },
    {
      "constant": false,
      "inputs": [
        {
          "name": "_to",
          "type": "address"
        },
        {
          "name": "_value",
          "type": "uint256"
        }
      ],
      "name": "transfer",
      "outputs": [],
      "payable": false,
      "stateMutability": "nonpayable",
      "type": "function"
    },
    {
      "constant": false,
      "inputs": [
        {
          "name": "newquota",
          "type": "uint256"
        }
      ],
      "name": "changeQuota",
      "outputs": [],
      "payable": false,
      "stateMutability": "nonpayable",
      "type": "function"
    },
    {
      "constant": true,
      "inputs": [],
      "name": "imageURL",
      "outputs": [
        {
          "name": "",
          "type": "string"
        }
      ],
      "payable": false,
      "stateMutability": "view",
      "type": "function"
    },
    {
      "constant": true,
      "inputs": [],
      "name": "quota",
      "outputs": [
        {
          "name": "",
          "type": "uint256"
        }
      ],
      "payable": false,
      "stateMutability": "view",
      "type": "function"
    },
    {
      "constant": true,
      "inputs": [],
      "name": "numRegistrants",
      "outputs": [
        {
          "name": "",
          "type": "uint256"
        }
      ],
      "payable": false,
      "stateMutability": "view",
      "type": "function"
    },
    {
      "payable": true,
      "stateMutability": "payable",
      "type": "fallback"
    },
    {
      "anonymous": false,
      "inputs": [
        {
          "indexed": false,
          "name": "_from",
          "type": "address"
        },
        {
          "indexed": false,
          "name": "_eventName",
          "type": "string"
        }
      ],
      "name": "newEvent",
      "type": "event"
    },
    {
      "anonymous": false,
      "inputs": [
        {
          "indexed": false,
          "name": "_from",
          "type": "address"
        },
        {
          "indexed": false,
          "name": "_amount",
          "type": "uint256"
        }
      ],
      "name": "Deposit",
      "type": "event"
    },
    {
      "anonymous": false,
      "inputs": [
        {
          "indexed": false,
          "name": "_to",
          "type": "address"
        },
        {
          "indexed": false,
          "name": "_amount",
          "type": "uint256"
        }
      ],
      "name": "Refund",
      "type": "event"
    }
  ],
  "bytecode": "0x60606040526000600455341561001457600080fd5b611282806100236000396000f3006060604052600436106100f1576000357c0100000000000000000000000000000000000000000000000000000000900463ffffffff1680631209b1f6146101e157806313381fbf1461020a5780632a6ca755146102575780633b1c7a87146102e5578063460650031461041d578063612032651461044057806366a5ef2f14610495578063705099b9146104e457806370a08231146105265780638043c9c01461057357806383197ef0146106015780639434571b14610616578063a9059cbb146106a4578063a977c71e146106e6578063b90497e014610709578063cebe09c914610797578063ec3a6f73146107c0575b60055460045410151561010357600080fd5b6006543414151561011357600080fd5b34600260003373ffffffffffffffffffffffffffffffffffffffff1673ffffffffffffffffffffffffffffffffffffffff168152602001908152602001600020819055506101623360016107e9565b6004600081548092919060010191905055507fe1fffcc4923d04b559f4d29a8bfc6cda04eb5b0d3c460751c2402c5c5cc9109c3334604051808373ffffffffffffffffffffffffffffffffffffffff1673ffffffffffffffffffffffffffffffffffffffff1681526020018281526020019250505060405180910390a1005b34156101ec57600080fd5b6101f461095b565b6040518082815260200191505060405180910390f35b341561021557600080fd5b610241600480803573ffffffffffffffffffffffffffffffffffffffff16906020019091905050610961565b6040518082815260200191505060405180910390f35b341561026257600080fd5b61026a610979565b6040518080602001828103825283818151815260200191508051906020019080838360005b838110156102aa57808201518184015260208101905061028f565b50505050905090810190601f1680156102d75780820380516001836020036101000a031916815260200191505b509250505060405180910390f35b34156102f057600080fd5b61041b600480803590602001909190803590602001909190803590602001908201803590602001908080601f0160208091040260200160405190810160405280939291908181526020018383808284378201915050505050509190803590602001908201803590602001908080601f0160208091040260200160405190810160405280939291908181526020018383808284378201915050505050509190803590602001908201803590602001908080601f0160208091040260200160405190810160405280939291908181526020018383808284378201915050505050509190803590602001908201803590602001908080601f01602080910402602001604051908101604052809392919081815260200183838082843782019150505050505091905050610a17565b005b341561042857600080fd5b61043e6004808035906020019091905050610bc3565b005b341561044b57600080fd5b610453610c09565b604051808273ffffffffffffffffffffffffffffffffffffffff1673ffffffffffffffffffffffffffffffffffffffff16815260200191505060405180910390f35b6104ca600480803573ffffffffffffffffffffffffffffffffffffffff16906020019091908035906020019091905050610c2f565b604051808215151515815260200191505060405180910390f35b34156104ef57600080fd5b610524600480803573ffffffffffffffffffffffffffffffffffffffff16906020019091908035906020019091905050610d26565b005b341561053157600080fd5b61055d600480803573ffffffffffffffffffffffffffffffffffffffff16906020019091905050610eb9565b6040518082815260200191505060405180910390f35b341561057e57600080fd5b610586610ed1565b6040518080602001828103825283818151815260200191508051906020019080838360005b838110156105c65780820151818401526020810190506105ab565b50505050905090810190601f1680156105f35780820380516001836020036101000a031916815260200191505b509250505060405180910390f35b341561060c57600080fd5b610614610f6f565b005b341561062157600080fd5b610629611002565b6040518080602001828103825283818151815260200191508051906020019080838360005b8381101561066957808201518184015260208101905061064e565b50505050905090810190601f1680156106965780820380516001836020036101000a031916815260200191505b509250505060405180910390f35b34156106af57600080fd5b6106e4600480803573ffffffffffffffffffffffffffffffffffffffff169060200190919080359060200190919050506107e9565b005b34156106f157600080fd5b61070760048080359060200190919050506110a0565b005b341561071457600080fd5b61071c611107565b6040518080602001828103825283818151815260200191508051906020019080838360005b8381101561075c578082015181840152602081019050610741565b50505050905090810190601f1680156107895780820380516001836020036101000a031916815260200191505b509250505060405180910390f35b34156107a257600080fd5b6107aa6111a5565b6040518082815260200191505060405180910390f35b34156107cb57600080fd5b6107d36111ab565b6040518082815260200191505060405180910390f35b806000803073ffffffffffffffffffffffffffffffffffffffff1673ffffffffffffffffffffffffffffffffffffffff16815260200190815260200160002054101561083457600080fd5b6000808373ffffffffffffffffffffffffffffffffffffffff1673ffffffffffffffffffffffffffffffffffffffff16815260200190815260200160002054816000808573ffffffffffffffffffffffffffffffffffffffff1673ffffffffffffffffffffffffffffffffffffffff168152602001908152602001600020540110156108bf57600080fd5b806000803073ffffffffffffffffffffffffffffffffffffffff1673ffffffffffffffffffffffffffffffffffffffff16815260200190815260200160002060008282540392505081905550806000808473ffffffffffffffffffffffffffffffffffffffff1673ffffffffffffffffffffffffffffffffffffffff168152602001908152602001600020600082825401925050819055505050565b60065481565b60026020528060005260406000206000915090505481565b60098054600181600116156101000203166002900480601f016020809104026020016040519081016040528092919081815260200182805460018160011615610100020316600290048015610a0f5780601f106109e457610100808354040283529160200191610a0f565b820191906000526020600020905b8154815290600101906020018083116109f257829003601f168201915b505050505081565b33600360006101000a81548173ffffffffffffffffffffffffffffffffffffffff021916908373ffffffffffffffffffffffffffffffffffffffff16021790555085600581905550846006819055508360079080519060200190610a7c9291906111b1565b508260089080519060200190610a939291906111b1565b508160099080519060200190610aaa9291906111b1565b5080600a9080519060200190610ac19291906111b1565b507f019a49222a41500bd9ef06845153c35eb0c43c4586c6650970511edad37bf715306007604051808373ffffffffffffffffffffffffffffffffffffffff1673ffffffffffffffffffffffffffffffffffffffff16815260200180602001828103825283818154600181600116156101000203166002900481526020019150805460018160011615610100020316600290048015610ba15780601f10610b7657610100808354040283529160200191610ba1565b820191906000526020600020905b815481529060010190602001808311610b8457829003601f168201915b5050935050505060405180910390a1610bbb600554610bc3565b505050505050565b806000803073ffffffffffffffffffffffffffffffffffffffff1673ffffffffffffffffffffffffffffffffffffffff1681526020019081526020016000208190555050565b600360009054906101000a900473ffffffffffffffffffffffffffffffffffffffff1681565b6000600554600454101515610c475760009050610d20565b600654821015610c5a5760009050610d20565b81600260008573ffffffffffffffffffffffffffffffffffffffff1673ffffffffffffffffffffffffffffffffffffffff168152602001908152602001600020819055506004600081548092919060010191905055507fe1fffcc4923d04b559f4d29a8bfc6cda04eb5b0d3c460751c2402c5c5cc9109c8383604051808373ffffffffffffffffffffffffffffffffffffffff1673ffffffffffffffffffffffffffffffffffffffff1681526020018281526020019250505060405180910390a1600190505b92915050565b6000600360009054906101000a900473ffffffffffffffffffffffffffffffffffffffff1673ffffffffffffffffffffffffffffffffffffffff163373ffffffffffffffffffffffffffffffffffffffff16141515610d8457610eb4565b81600260008573ffffffffffffffffffffffffffffffffffffffff1673ffffffffffffffffffffffffffffffffffffffff168152602001908152602001600020541415610eb357309050818173ffffffffffffffffffffffffffffffffffffffff1631101515610eb2576000600260008573ffffffffffffffffffffffffffffffffffffffff1673ffffffffffffffffffffffffffffffffffffffff16815260200190815260200160002081905550600460008154809291906001900391905055507fbb28353e4598c3b9199101a66e0989549b659a59a54d2c27fbb183f1932c8e6d8383604051808373ffffffffffffffffffffffffffffffffffffffff1673ffffffffffffffffffffffffffffffffffffffff1681526020018281526020019250505060405180910390a15b5b5b505050565b60006020528060005260406000206000915090505481565b60078054600181600116156101000203166002900480601f016020809104026020016040519081016040528092919081815260200182805460018160011615610100020316600290048015610f675780601f10610f3c57610100808354040283529160200191610f67565b820191906000526020600020905b815481529060010190602001808311610f4a57829003601f168201915b505050505081565b600360009054906101000a900473ffffffffffffffffffffffffffffffffffffffff1673ffffffffffffffffffffffffffffffffffffffff163373ffffffffffffffffffffffffffffffffffffffff16141561100057600360009054906101000a900473ffffffffffffffffffffffffffffffffffffffff1673ffffffffffffffffffffffffffffffffffffffff16ff5b565b60088054600181600116156101000203166002900480601f0160208091040260200160405190810160405280929190818152602001828054600181600116156101000203166002900480156110985780601f1061106d57610100808354040283529160200191611098565b820191906000526020600020905b81548152906001019060200180831161107b57829003601f168201915b505050505081565b600360009054906101000a900473ffffffffffffffffffffffffffffffffffffffff1673ffffffffffffffffffffffffffffffffffffffff163373ffffffffffffffffffffffffffffffffffffffff161415156110fc57611104565b806005819055505b50565b600a8054600181600116156101000203166002900480601f01602080910402602001604051908101604052809291908181526020018280546001816001161561010002031660029004801561119d5780601f106111725761010080835404028352916020019161119d565b820191906000526020600020905b81548152906001019060200180831161118057829003601f168201915b505050505081565b60055481565b60045481565b828054600181600116156101000203166002900490600052602060002090601f016020900481019282601f106111f257805160ff1916838001178555611220565b82800160010185558215611220579182015b8281111561121f578251825591602001919060010190611204565b5b50905061122d9190611231565b5090565b61125391905b8082111561124f576000816000905550600101611237565b5090565b905600a165627a7a7230582035419a0a9cb52cd01d0c4f527a0b00548b92ecb7ac1130d477e29a2c4c4999a60029",
  "source": "pragma solidity ^0.4.8;\n\n/*Need to write fallback function*/\n\n\ncontract MyToken {\n    /* This creates an array with all balances */\n    mapping (address => uint256) public balanceOf;\n\n    /* Initializes contract with initial supply tokens to the creator of the contract */\n    function BloxToken(\n        uint256 initialSupply\n        ) {\n        balanceOf[this] = initialSupply;              // Give the creator all initial tokens\n    }\n\n    /* Send coins */\n    function transfer(address _to, uint256 _value) {\n        if (balanceOf[this] < _value) throw;           // Check if the sender has enough\n        if (balanceOf[_to] + _value < balanceOf[_to]) throw; // Check for overflows\n        balanceOf[this] -= _value;                     // Subtract from the sender\n        balanceOf[_to] += _value;                            // Add the same to the recipient\n    }\n}\n\ncontract EventCreator {\n\n  /*index of created events*/\n  address[] public allEvents;\n\n  event createContract(address _from, string _eventName);\n\n  function getAllEvents()\n  public\n  constant\n  returns(address[] allEvents)\n {\n   return allEvents;\n }\n\n  function getContractCount()\n  public\n  constant\n  returns(uint contractCount)\n {\n   return allEvents.length;\n }\n}\n\ncontract UserEvent is MyToken {\n\n  /*Need to create Array of tickets based on quota*/\n\n  UserEvent creator;\n  mapping (address => uint) public registrantsPaid;\n  address public organizer;\n  uint public numRegistrants = 0;\n  uint public quota;\n  uint public ticketPrice;\n  string public eventName;\n  string public eventDescription;\n  string public eventLocation;\n  string public imageURL;\n\n\n  event newEvent(address _from, string _eventName);\n\n  event Deposit(address _from, uint _amount);  // so you can log these events\n  event Refund(address _to, uint _amount);\n\n  function createEvent(\n    uint _quota,\n    uint _ticketPrice,\n    string _eventName,\n    string _eventDescription,\n    string _eventLocation,\n    string _imageURL)\n    {\n    organizer = msg.sender;\n    quota = _quota;\n    ticketPrice = _ticketPrice;\n    eventName = _eventName;\n    eventDescription = _eventDescription;\n    eventLocation = _eventLocation;\n    imageURL = _imageURL;\n    /*EventCreator.allEvents.push(this);*/\n    newEvent(this, eventName);\n    MyToken.BloxToken(quota);\n  }\n\n  /*function something(\n    address one,\n    address two,\n    address three)\n  constant\n  doSomething(one, two, msg.sender)\n  payable returns (bool) {\n\n  }*/\n\n  function () payable {\n    if (numRegistrants >= quota)\n      throw;\n\n    if (msg.value != ticketPrice)\n      throw;\n\n    registrantsPaid[msg.sender] = msg.value;\n    MyToken.transfer(msg.sender, 1);\n    numRegistrants++;\n    Deposit(msg.sender, msg.value);\n    // send a percentage to EventCreator\n  }\n\n  /*UserEvent(0x01023012123123).buyTicket();\n  UserEvent(0x01023012123123).sendTransaction('buyTicket');*/\n\n  /*Need to send user ticket*/\n  function buyTicket(address _purchaser, uint _amountPaid) payable public returns (bool success) {\n    if (numRegistrants >= quota) { return false; }\n    if (_amountPaid < ticketPrice) { return false; }\n    registrantsPaid[_purchaser] = _amountPaid;\n    numRegistrants++;\n    Deposit(_purchaser, _amountPaid);\n    return true;\n  }\n\n  // maybe only increaseQuota\n  function changeQuota(uint newquota) public {\n    if (msg.sender != organizer) { return; }\n    quota = newquota; // what happens when this is lower?\n  }\n\n  /*bool reentrancy;\n\n  modifier noRentrancy {\n    if (reentrancy == true)\n      throw;\n\n    reentrancy = true;\n\n  }*/\n\n  function refundTicket(address recipient, uint amount) public {\n    if (msg.sender != organizer) { return; }\n    if (registrantsPaid[recipient] == amount) {\n      address myAddress = this;\n      if (myAddress.balance >= amount) {\n        /*if (!recipient.transfer(amount))\n          throw; // determine the difference with send, guards against reentrancy?*/\n\n        registrantsPaid[recipient] = 0;\n        numRegistrants--;\n        Refund(recipient, amount);\n      }\n    }\n  }\n  function destroy() { // so funds not locked in contract forever\n    if (msg.sender == organizer) {\n      selfdestruct(organizer); // send funds to organizer\n    }\n  }\n}\n",
  "sourcePath": "/Users/sujianwei20/Desktop/bloxoffice/contracts/Tickets.sol",
  "compiler": {
    "name": "solc",
    "version": "0.4.18+commit.9cf6e910.Emscripten.clang"
  },
  "schemaVersion": "1.0.1",
  "updatedAt": "2018-01-01T05:11:56.360Z"
}